:020000040800F2
:1000000080280020D50100080B1100085D0C0008B5
:1000100007110008DD0500088B1A00080000000029
:10002000000000000000000000000000F1160008C1
:10003000E105000800000000C115000805180008CF
:10004000EF010008EF010008EF010008EF010008D0
:10005000EF010008EF010008EF010008EF010008C0
:10006000EF010008EF01000831060008EF01000869
:10007000EF010008EF010008EF010008EF010008A0
:10008000EF010008EF010008EF010008EF01000890
:10009000EF010008EF010008EF0100085906000811
:1000A000EF010008EF010008EF010008EF01000870
:1000B000EF010008EF010008EF010008EF01000860
:1000C000EF010008EF010008EF010008EF01000850
:1000D000EF01000869180008EF010008EF010008AF
:1000E000EF010008EF010008EF010008EF01000830
:1000F000EF010008EF010008EF010008EF01000820
:10010000EF010008EF010008EF010008EF0100080F
:10011000EF010008EF010008EF010008EF010008FF
:10012000EF010008EF010008EF010008EF010008EF
:1001300000F002F800F03FF80AA090E8000C8244BA
:100140008344AAF10107DA4501D100F034F8AFF297
:10015000090EBAE80F0013F0010F18BFFB1A43F0A5
:1001600001031847BC470000DC470000103A24BFD9
:1001700078C878C1FAD8520724BF30C830C144BF0C
:1001800004680C607047000000230024002500264E
:10019000103A28BF78C1FBD8520728BF30C148BFEA
:1001A0000B607047642900F06B80002070471FB51A
:1001B0001FBD10B510BD00F0E3F91146FFF7F7FFC2
:1001C00002F08CF900F001FA03B4FFF7F2FF03BC70
:1001D00001F081FD0948804709480047FEE7FEE736
:1001E000FEE7FEE7FEE7FEE7FEE7FEE7FEE7FEE7E7
:1001F00004480549054A064B7047000009180008E5
:100200003101000880220020802800208024002066
:1002100080240020704700000FB4044910B503AAE1
:10022000029800F077F910BC5DF814FB380000204C
:1002300070B5044685690068C10601D5302600E026
:100240002026C00707D070BDD4E901213046904771
:10025000206A401C20626D1EF6D570BD70B5044644
:1002600085690078C00707D170BDD4E9012120203D
:100270009047206A401C20626D1EF6D570BD0000BC
:100280002DE9F0410646002410687529314616A56F
:1002900010D0AFF30080002802DA404213A507E037
:1002A00031688A0701D512A502E0490704D511A5D6
:1002B000012401E0AFF3008000210A2206F12407A7
:1002C00009E0B0FBF2FCB0FBF2F302FB1C003030A3
:1002D00078541846491C0028F3D123462A46304654
:1002E000BDE8F04100F0BDB8000000002D000000A6
:1002F0002B000000200000002DE9F0474FF0000A1D
:1003000089460446C0F820A02046E16888470028B6
:1003100076D0252806D0D4E901219047206A401CD8
:100320002062F1E7E168204600258847C4F81CA058
:1003300006460027C4F818A02A2E09D0304601F03E
:10034000C3FC38B304EB8708303EC8F8186019E0E6
:1003500059F8041B204604EB87029161E168884745
:10036000012F064618D1E069002820DA25F0200583
:100370001DE0D8F8180000EB800006EB4000303894
:10038000C8F818002046E1688847064601F09CFC42
:100390000028EED1012F0AD02E2E08D12046E16888
:1003A00088477F1C0646022F45F02005C4DBA06964
:1003B000002803DA404245F00105A061E80701D0BA
:1003C00025F01005B6B1A6F14100192802D8203653
:1003D00045F400654A463146204625604D46FFF704
:1003E000E1FE58B1012806D0ED1D25F0070000F10F
:1003F000080989E704E005F1040985E730468AE742
:10040000206ABDE8F08710B5431C02E010F8011B1C
:1004100071B18107FAD14FF0013202C88C1A8C43B6
:1004200014EAC211F9D0C01A0A0603D0C01E10BDCA
:10043000C01A10BD0A0401D0801E10BD0902FCD0F4
:10044000401E10BD704770477047704710B500F0F0
:1004500073F8006810BD10B5044600F06DF8046034
:1004600010BD2DE9F0470D4699469246044600F12D
:1004700024080168880604D5E06921F01001216094
:1004800000E00120A84201DD471B00E00027A16930
:100490007A1902EB0900081AA0612078C00602D47C
:1004A0002046FFF7C5FE002608E0D4E901211AF82E
:1004B00006009047206A401C761C20624E45F4DB03
:1004C0002078C0060AD52046FFF7B2FE06E0D4E940
:1004D000012130209047206A401C2062381EA7F17D
:1004E0000107F4DC07E0D4E9012118F80500904782
:1004F000206A401C2062281EA5F10105F3DC20467D
:10050000FFF7ACFE2078000602D50220BDE8F08798
:100510000120FBE7074B70B50D467B4400F015F852
:100520000446284600F024F810B14FF0FF3070BDAB
:10053000204670BDA31F0000004870471C22002009
:1005400001694A1C02610878704700B58FB0CDE997
:1005500001310021059105497944CDE90310114687
:100560006846FFF7C9FE0FB000BD0000E5FFFFFFC2
:10057000007B00F080007047004870471C2200207C
:100580007546FFF7F9FFAE4605006946534620F071
:100590000700854618B020B5FFF72AFEBDE82040C9
:1005A0004FF000064FF000074FF000084FF0000B2F
:1005B00021F00701AC46ACE8C009ACE8C009ACE8E2
:1005C000C009ACE8C0098D46704710B50446AFF3CA
:1005D00000802046BDE81040FFF7F6BD00BFFEE7F3
:1005E00070470FB47CB504460A99089802F0E8FFFA
:1005F00005460999079802F0E3FF0646294603F0ED
:1006000065F90090DDE9080102F0DAFF05460A9974
:10061000079802F0D5FF0646294602F025FE019014
:10062000DDE90001C4E900017CBC5DF814FB0000B9
:1006300010B50A2001F0C0FE1021054800F070FA44
:1006400010B9012003490870102000F05FF810BDB8
:10065000000801403000002010B50A2001F0ACFE77
:100660002021074800F05CFA28B9002005490870ED
:10067000012005490860202000F048F810BD000066
:100680000008014030000020980121420EB500F022
:1006900087FC0121084600F095FF0421002000F0AE
:1006A0004BF91020019000208DF808000C208DF8E7
:1006B000090001208DF80A0001A800F02DF805219D
:1006C000002000F039F92020019001A800F024F862
:1006D0000A208DF8000002208DF8010003208DF81B
:1006E000020001208DF80300684600F00FFD17207E
:1006F0008DF8000002208DF801008DF80200012025
:100700008DF80300684600F001FD0EBD0149086048
:100710007047000014040140002123498279002A17
:100720003AD00A46126803689A430B461A600A1DBB
:10073000126803689A430B1D1A60027911440A6813
:1007400003681A430A60184A0832126803689A4319
:10075000154B08331A601A1D126803689A43124B2E
:100760000C331A604279102A0ED11A1F12680368DE
:100770001A430D4B08331A601A1D126803681A4396
:10078000094B0C331A600DE00749427911440A689D
:1007900003681A430A6005E0027911440A68036895
:1007A0009A430A6070470000000401402DE9F04FB1
:1007B00091B0044600264FF480700E9040F2FF1076
:1007C0000D9000251CE0B5420FDA04EBC60103C909
:1007D000CDE9060104EBC60004EBC50206CA06C05B
:1007E00004EBC500DDE9061206C00E9F04E0F61B0F
:1007F000384607EBD0714F10B742F8DD3E446D1C10
:100800000D988542DFDB4FF400700F9001200C90B3
:1008100002E00C98401C0C900F9800EBD07149102E
:100820000F910129F5D188467BE0A8F10100022152
:1008300001FA00F9484609EBD0714FEA610A4FF01E
:100840007E500A9000200B90504602F064FA024657
:100850000B46CDE900013648364902F099F8CDE95A
:10086000020101F015F9CDE9040101F0ABFF089098
:10087000504602F050FA02460B46CDE900012C48E2
:100880002C4902F085F8CDE9020101F015F981F05B
:100890000041CDE9040101F095FF099000263AE0FE
:1008A00035462CE005EB0A0B0B9804EBCB0C0090C3
:1008B0000A9B06A8DCE90012FFF793FE54F8350006
:1008C000069903F003F844F83B0004EBC5020799CE
:1008D000506802F0FBFF04EBCB01486054F8350090
:1008E000069902F0C1FC44F8350004EBC5020799F3
:1008F000506802F0B9FC04EBC50148604D44B5F501
:10090000007FCFDB099800900AA8089BDDE90A1256
:10091000FFF767FE761CAAF10100B042C0DA08F1C9
:1009200001080C98804580DD11B0BDE8F08F000013
:10093000182D4454FB21094030B500228B071C0FB1
:100940000F2303FA04F20B4B8C1053F8243093431B
:10095000084C8D1044F8253023468C1053F8243071
:100960008C07240F00FA04F42343024C8D1044F842
:10097000253030BD080001402DE9F0410246002538
:100980000026002000230024002791F803C00CF06B
:100990000F0591F803C00CF0100CBCF1000F03D050
:1009A00091F802C04CEA050591F800C0BCF1000FB7
:1009B00031D0146800202BE04FF0010C0CFA00F34A
:1009C000B1F800C00CEA03069E4220D183004FF02C
:1009D0000F0C0CFA03F7BC4305FA03FC4CEA0404C1
:1009E00091F803C0BCF1280F06D14FF0010C0CFAAE
:1009F00000FCC2F814C00AE091F803C0BCF1480F33
:100A000005D14FF0010C0CFA00FCC2F810C0401CDC
:100A10000828D1D31460B1F800C0BCF1FF0F34DD59
:100A2000546800202EE000F1080C4FF0010808FA8D
:100A30000CF3B1F800C00CEA03069E4221D18300FA
:100A40004FF00F0C0CFA03F7BC4305FA03FC4CEA19
:100A5000040491F803C0BCF1280F05D100F1080C83
:100A600008FA0CF8C2F8148091F803C0BCF1480FE2
:100A700007D100F1080C4FF0010808FA0CF8C2F891
:100A80001080401C0828CED35460BDE8F0810000DF
:100A9000F0B50A46002300240021002500F000469E
:100AA000B6F1004F02D11D4EF16901E01B4E716895
:100AB000C0F3034583B200F44016B6F5401F08D1D9
:100AC00021F07061154E766826F07066134F7E60D7
:100AD00012E000F48016B6F5801F06D1032606FA50
:100AE00005F4A14341F0706106E0460D360103FABA
:100AF00006F6B14341F0706122B1460D360103FAAA
:100B000006F6314300F00046B6F1004F02D1034E25
:100B1000F16101E0014E7160F0BD00000000014094
:100B20000246002093680B400BB1012000E000203A
:100B30007047416170470161704700002DE9FC5F1B
:100B400007468846164699464FF0000A3046FFF79A
:100B50005AFCC0F347000190D34678E0002572E0CC
:100B600005EB05103C4911F810003178884268D136
:100B700005EB0510384901EB400040787178884258
:100B80005FD1B61C08F0FF01F8B200F0EDFB0024C5
:100B90001FE0B9F1010F0AD105EB05102E4901EB59
:100BA0004000801C005DC043C0B2009007E005EB30
:100BB0000510294901EB4000801C005D00900121D7
:100BC000009800F096FC0AF1010000F0FF0A601C9A
:100BD000C4B2102CDDDB08F10102D1B2F8B200F092
:100BE000C3FB002423E0B9F1010F0CD105EB051084
:100BF000194901EB4000801C04F11001405CC04326
:100C0000C0B2009009E005EB0510134901EB40006C
:100C1000801C04F11001405C00900121009800F05C
:100C200068FC0AF1010000F0FF0A601CC4B2102C3D
:100C3000D9DB07F1100087B20BF101001FFA80FB2E
:100C400003E0681C85B21A2D8AD300BF00BF01984B
:100C5000834583DBBDE8FC9F7E42000800BFFEE7C2
:100C600010B50446ACB14FF400711748FFF763FFAD
:100C700000F02CF84FF480711348FFF75CFF00F090
:100C800025F84FF480711048FFF753FF00F01EF86D
:100C900019E04FF400710C48FFF74BFF00F016F815
:100CA0004FF480710848FFF746FF00F00FF84FF44B
:100CB00080710548FFF73DFF00F008F84FF4007120
:100CC0000148FFF738FF10BD000C0140062000BFAF
:100CD000011EA0F10102D0B2FAD1704708B501217E
:100CE000082000F06FFC14208DF803004FF4807092
:100CF000ADF8000003208DF8020069460548FFF7B3
:100D00003BFE4FF40070ADF8000069460148FFF764
:100D100033FE08BD000C01402DE9F0410446884631
:100D200016461F4600F0DEF8E0B200F08BF81A48D5
:100D30000078012802D10020BDE8F08108F0FF0012
:100D400000F080F814480078012801D10020F3E772
:100D500000F0C8F8611CC8B200F074F80E480078C2
:100D6000012801D10020E7E700250FE000F046F858
:100D700006F8010B781EA84203D10120FFF770FF8F
:100D800002E00020FFF76CFF681C85B2BD42EDDB7E
:100D900000F0C6F80120CFE71400002070B504462B
:100DA0000D4600F09FF8E0B200F04CF812480078D1
:100DB000012801D1002070BD284600F043F80E48FC
:100DC0000078012801D10020F5E700F08BF8611CC4
:100DD000C8B200F037F808480078012801D1002097
:100DE000E9E700F00BF806460120FFF739FF00F0B5
:100DF00097F83046DFE700001400002070B50024AB
:100E0000002519E06006040E4FF480710C48FFF7CE
:100E100092FEFFF75BFF4FF400710948FFF780FE79
:100E200008B1601CC4B24FF480710548FFF781FE21
:100E3000FFF74CFF681CC5B2082DE3DB204670BDF0
:100E4000000C014070B50446002521E004F080004C
:100E500028B14FF400712148FFF76DFE04E04FF414
:100E600000711E48FFF765FEFFF730FF4FF48071F9
:100E70001A48FFF760FEFFF729FF4FF4807117480B
:100E8000FFF757FEFFF722FF6006040E681CC5B28D
:100E9000082DDBDB4FF400711048FFF74CFEFFF725
:100EA00015FF4FF480710D48FFF745FEFFF70EFF69
:100EB0004FF400710948FFF733FE18B101200849CB
:100EC000087002E00020064908704FF48071034862
:100ED000FFF72FFEFFF7FAFE70BD0000000C014087
:100EE0001400002010B54FF480710C48FFF723FE6A
:100EF0004FF400710948FFF71EFEFFF7E7FE4FF4BD
:100F000000710648FFF715FEFFF7E0FE4FF4807111
:100F10000248FFF70EFEFFF7D9FE10BD000C01409E
:100F200010B54FF400710948FFF703FE4FF48071CC
:100F30000648FFF700FEFFF7C9FE4FF400710348B3
:100F4000FFF7F9FDFFF7C2FE10BD0000000C0140E5
:100F500070B504460D461646FFF7C4FFE0B2FFF732
:100F600071FF0E480078012801D1002070BD28468D
:100F7000FFF768FF09480078012801D10020F5E754
:100F80003046FFF75FFF05480078012801D10020B7
:100F9000ECE7FFF7C5FF0120E8E7000014000020A0
:100FA00008B50121042000F00DFB7220ADF800000F
:100FB00048208DF8030069460148FFF7DDFC08BDB5
:100FC0000008014008B50121142000F0FBFA4FF49D
:100FD0000050ADF8000010208DF8030003208DF8BC
:100FE000020069460C48FFF7C7FC4020ADF800003E
:100FF00010208DF8030003208DF802006946074891
:10100000FFF7BAFC4FF400510348FFF794FD40216D
:101010000248FFF790FD08BD0010014000080140A4
:1010200010B5C0220221AE20FFF792FF002203215B
:10103000AE20FFF78DFF00220421AE20FFF788FFCE
:1010400000220521AE20FFF783FF00220621AE20FB
:10105000FFF77EFF0F220821AE20FFF779FF032262
:101060000921AE20FFF774FF27220A21AE20FFF7E7
:101070006FFF32220C21AE20FFF76AFF32220D21D2
:10108000AE20FFF765FF7F221021AE20FFF760FF43
:1010900010BD000008B50121082000F093FA0420DB
:1010A0008DF803002020ADF8000069460148FFF7E5
:1010B00063FC08BD000C014010B50024FFF70EFED4
:1010C000FFF7E8FF00F014F8FFF7AAFF00BF09E000
:1010D00001E001F02DFA20210448FFF721FD00284E
:1010E000F7D0641C802CF3DB10BD0000000C014025
:1010F00010B540220921AE20FFF72AFF08B10120D8
:1011000010BD0020FCE700BFFEE7704770B500216E
:1011100000230F22C47804B3154C246804F4E0645F
:10112000C4F5E064210AC1F10403CA40447804FA1A
:1011300003F184781440214309010E4C0678A1552F
:10114000047804F01F050124AC4005786D11AD0052
:1011500005F1E025C5F8004109E0047804F01F0519
:101160000124AC40044D0678761145F8264070BD48
:101170000CED00E000E400E080E100E00249014302
:10118000024A1160704700000000FA050CED00E013
:1011900070B5002418E004F1B000002100F0A9F9B6
:1011A0000021084600F0A5F90021102000F0A1F967
:1011B000002505E00121002000F09BF9681CC5B264
:1011C000802DF7DB601CC4B2082CE4DB70BD00008E
:1011D00010B54FF480510948FFF7ADFC4FF40051B2
:1011E0000648FFF7A8FC4FF400510448FFF7A1FCA4
:1011F0004FF480510148FFF79CFC10BD000C0140EA
:1012000010B54FF480510748FFF795FC4FF400519B
:101210000448FFF78EFC4FF400510248FFF78BFCA7
:1012200010BD0000000C014010B54FF4805104487F
:10123000FFF781FC4FF480510148FFF77AFC10BDA5
:10124000000C014008B50121092000F0BBF9012183
:101250004348FFF71DFC4FF44050ADF8000010204C
:101260008DF8030003208DF8020069463D48FFF722
:1012700083FB4FF440513B48FFF75DFC4FF448704F
:1012800001F09AF80021AE2000F033F90021084661
:1012900000F02FF90021102000F02BF90021402050
:1012A00000F027F90021B02000F023F9002181206F
:1012B00000F01FF90021FF2000F01BF90021A12000
:1012C00000F017F90021A62000F013F90021A82052
:1012D00000F00FF900213F2000F00BF90021C82099
:1012E00000F007F90021D32000F003F9002108469F
:1012F00000F0FFF80021D52000F0FBF8002180204D
:1013000000F0F7F80021D82000F0F3F800210520C4
:1013100000F0EFF80021D92000F0EBF80021F120D7
:1013200000F0E7F80021DA2000F0E3F800211220B5
:1013300000F0DFF80021DB2000F0DBF80021302096
:1013400000F0D7F800218D2000F0D3F80021142000
:1013500000F0CFF80021AF2000F0CBF808BD00006E
:1013600000023000000C014070B504460D4605F146
:10137000B000002100F0BDF8102141EA1410002156
:1013800000F0B7F804F00F00002100F0B2F870BDD3
:101390002DE9F04707460E46904699460025002461
:1013A000A8F12000C5B27F2F02DD0027B01CC6B215
:1013B000B9F1100F24D131463846FFF7D5FF00248C
:1013C00008E004EB0511194A505C012100F091F886
:1013D000601CC4B2082CF4DB701CC1B23846FFF7A5
:1013E000C3FF002409E004EB051108310F4A505CEB
:1013F000012100F07EF8601CC4B2082CF3DB12E07F
:1014000031463846FFF7B0FF00240AE005EB4501FE
:10141000074A02EB4101085D012100F06AF8601CF7
:10142000C4B2062CF2DBBDE8F0870000DE3B00080A
:10143000B63900082DE9FF5F074691461E460E9D0E
:101440004FF0000A002435E0301B401EC1B20A20D4
:1014500001F046F9B9FBF0F00A21B0FBF1F201FB13
:101460001208BAF1000F14D1701EA04211DDB8F1BC
:10147000000F0CD1AB4605EBDB71491001FB047189
:10148000C8B22B4620220199FFF782FF10E04FF0EF
:10149000010AAB4605EBDB71491001FB0471C8B2D0
:1014A00008F13001CAB22B460199FFF771FF00BF66
:1014B000601CC4B2B442C7DBBDE8FF9F2DE9F04118
:1014C00005460E4614461F460EE022783B4631463E
:1014D0002846FFF75DFF05F10800C5B2782D02DD53
:1014E0000025B01CC6B2641C20780028EDD1BDE8F0
:1014F000F08170B504460D461DB1E0B200F04AF827
:1015000002E0E0B200F030F870BD00002DE9F041DB
:1015100005462C464FF480511248FFF70AFB00267F
:101520001CE0274607F08007802F04D1B9010D4841
:10153000FFF701FB04E04FF400510A48FFF7F9FA06
:101540006006040E4FF480510648FFF7F4FA4FF49A
:1015500080510448FFF7EDFA701CC6B2082EE0DB9C
:10156000BDE8F081000C014010B50446FFF730FEE5
:101570007820FFF7CBFFFFF757FE0020FFF7C6FFED
:10158000FFF752FE2046FFF7C1FFFFF74DFEFFF7C2
:1015900037FE10BD10B50446FFF71AFE7820FFF79E
:1015A000B5FFFFF741FE4020FFF7B0FFFFF73CFE1D
:1015B0002046FFF7ABFFFFF737FEFFF721FE10BD18
:1015C0007047000029B1064A92690243044B9A61B0
:1015D00004E0034A92698243014B9A61704700001C
:1015E0000010024030B500210022002400232D4DC0
:1015F0006D6805F00C0121B1042905D0082923D11B
:1016000005E0294D056022E0274D05601FE0254DCE
:101610006D6805F47012234D6D6805F48034022561
:1016200005EB92421CB9214D554305600BE01D4D61
:101630006D6805F400351DB11C4D5543056002E091
:10164000194D5543056002E0174D056000BF00BF0E
:10165000144D6D6805F0F0010909154D6B5C0568C6
:10166000DD4045600F4D6D6805F4E061090A104DDD
:101670006B5C4568DD4085600A4D6D6805F460511E
:10168000C90A0B4D6B5C4568DD40C560054D6D6852
:1016900005F44041890B074D6B5CC568B5FBF3F55C
:1016A000056130BD0010024000127A0000093D00C3
:1016B0003E0000204E00002008B501210820FFF761
:1016C00081FFC020ADF8000014208DF80300032036
:1016D0008DF8020069460548FFF74EF9402003499E
:1016E000103108608020086008BD0000000C014037
:1016F000704710B500F002F810BD00000CB50020D6
:10170000019000903348006840F48030314908600F
:1017100000BF3048006800F4003000900198401C81
:101720000190009818B90198B0F5A06FF1D129483F
:10173000006800F4003010B10120009001E00020AA
:1017400000900098012843D12348006840F0100021
:10175000214908600846006820F003000860084638
:10176000006840F0020008601A4840681949486063
:101770000846406848600846406840F48060486019
:101780000846406820F47C1048600846406840F4F1
:10179000E81048600846006840F08070086000BFAC
:1017A0000C48006800F000700028F9D00948406833
:1017B00020F00300074948600846406840F00200F6
:1017C000486000BF0348406800F00C000828F9D1C9
:1017D0000CBD00000010024000200240042808D187
:1017E0004FF0E021096941F004014FF0E02211615E
:1017F00007E04FF0E021096921F004014FF0E022F9
:10180000116170477047000010B51348006840F040
:1018100001001149086008464068104908400E4917
:101820004860084600680E4908400B4908600846B1
:10183000006820F4802008600846406820F4FE001C
:1018400048604FF41F008860FFF753FF4FF00060BF
:101850000449086010BD0000001002400000FFF8BD
:10186000FFFFF6FE08ED00E010B540F225511D48DF
:1018700000F04AF810B31B4800F002F9C4B21A484D
:10188000008800F40040C8B91748008800F4804080
:1018900060B10A2C03D000201349088020E01248D0
:1018A000008840F400401049088019E00D2C06D152
:1018B0000D48008840F480400B49088010E00A4839
:1018C0000088C0F30D0009490C5407480088401CEB
:1018D0000549088008460088C72801DD00200880E7
:1018E00010BD0000003801403C00002054210020C1
:1018F00021B1828942F40052828104E082894DF64E
:10190000FF731A408281704770B50246002400239D
:101910000025002040F66A16B14200D100BFC1F395
:10192000421501F01F03012606FA03F3012D02D12F
:101930009689334006E0022D02D1168A334001E039
:10194000968A33400C12012606FA04F416883440B5
:1019500013B10CB1012000E0002070BDF0B50346CA
:10196000002400260025002040F66A17B94200D165
:1019700000BF1846C1F3421401F01F06012707FA01
:1019800006F5012C01D10C3004E0022C01D11030FD
:1019900000E014301AB107682F43076002E00768BF
:1019A000AF430760F0BD00002DE9F04786B0054663
:1019B0000E460024A24600BFA1460027B08900B110
:1019C00000BF2F462C8A4CF6FF700440F088044379
:1019D0002C82AC894EF6F3100440B088318908435C
:1019E000718908430443AC81AC8A4FF6FF40044040
:1019F000B0890443AC8201A8FFF7F4FD1F48874279
:101A000002D1DDF810A001E0DDF80CA0A88900F4F7
:101A1000004040B10AEBCA0000EB0A1031684900EF
:101A2000B0FBF1F807E00AEBCA0000EB0A103168DE
:101A30008900B0FBF1F86420B8FBF0F00401200944
:101A4000642101FB1089A88900F4004040B13220D4
:101A500000EBC900B0FBF1F000F00700044308E020
:101A6000322000EB09106421B0FBF1F000F00F0010
:101A700004432C8106B0BDE8F08700000038014027
:101A800001468888C0F30800704700BFFEE70000E9
:101A90002DE9F04104460D46054A064B20462946ED
:101AA00000F0C2FE064600F007F8BDE8F081000035
:101AB000182D4454FB21F93F2DE9F04F93B0044613
:101AC0000D464FF0000B002213462046294601F038
:101AD00039F903D24FF0010B85F00045704A714B84
:101AE0002046294600F0B0FD04460D466C4A6E4B78
:101AF0002046294601F060FA0ED2BBF1000F01D159
:101B0000012000E000208346654A674B20462946B5
:101B100001F094FA04460D46614A644B204629467A
:101B200001F04AFA07D25E4A5F4B2046294601F08F
:101B300079FA04460D465E4A5E4B2046294600F07F
:101B400027FFCDE90E0101F0B7F88246504601F0BB
:101B5000E2F8574A574BCDE90C0101F02FF9224624
:101B60002B46CDE90E0101F05DFA06460F46504ABC
:101B7000514B3046394601F01FFA09D20AF1010AE9
:101B80004B4A4C4B3046394601F058FA06460F4650
:101B90004A4800EBCA00D0E90089CAF1640047490D
:101BA00001EBC00003C8CDE9100132463B46304688
:101BB000394601F003F932463B46CDE9040101F014
:101BC000FDF832463B46CDE9060101F0F7F8424602
:101BD0004B46CDE9080101F0F1F80022384BCDE980
:101BE0000A0100F0D5FE32463B46CDE90E013046F3
:101BF000394601F0E3F832463B46CDE9020101F0F7
:101C0000DDF8CDE90401DDE9102301F0D7F8002269
:101C10002C4BCDE9060100F0BBFE32463B46CDE938
:101C20000A013046394601F0C9F842464B46CDE933
:101C3000000101F0C3F800224FF08043CDE902011A
:101C400000F0A6FECDE9060130463946DDE9102355
:101C500001F0B4F842464B46CDE9020100F0E4FD44
:101C6000CDE90401DDE9062301F0E8F9CDE9080139
:101C7000DDE90A2301F0E2F9CDE90C01DDE90E23EB
:101C800000F0D2FD04460D46BBF1000F05D0204602
:101C900085F0004113B0BDE8F08F20462946F9E7F2
:101CA000182D4454FB211940FB210940FB21F93F29
:101CB0001A271792BF15903FBF15803FF8450008BF
:101CC000000038400000184030380A2801D20120B6
:101CD00070470020704700BF7047000038B500F023
:101CE00001FB00F0E9F842A0FEF796FA47480068C9
:101CF0002E2803DD45480068822809DB102344A212
:101D000002212A20FFF7DAFB42A0FEF785FA0DE058
:101D1000102000903D480323022102682A20FFF78B
:101D200089FB3A4801683FA0FEF776FA37494868D0
:101D300001F06EFA04463F4A3F4B01F003F81CD213
:101D4000324948683D4901F007FD16D22F494868DD
:101D500001F0BAFB04461020032322460421009020
:101D60002A20FFF767FB2949486801F0ADFB0446CC
:101D7000214633A0FEF750FA08E0102324A20421E4
:101D80002A20FFF79BFB31A0FEF746FA1F480068A8
:101D90002E280FDB1D48006882280BDA1B49486893
:101DA0002E4901F0D9FC05D318494868234901F0B0
:101DB000D3FB0CD200232AA206212A20FEF7BEFE66
:101DC0002AA0FEF729FA00202C4908600BE0002326
:101DD0002BA206212A20FEF7B1FE2CA0FEF71CFA4A
:101DE0000120264908602DA0FEF716FA38BD000034
:101DF0002D2D2D2D2D2D2DB2E2CAD4BFAACABC2D5A
:101E00002D2D2D2D2D2D0D0A000000002800002065
:101E10002D2D2D00D0C4C2CA3A2D2D2D542F6D6901
:101E20006E0D0A00D0C4C2CA3A253364542F6D69BE
:101E30006E0D0A008FC2F5285CFF58400000484232
:101E4000D1AAD1F53A256425250D0A00D1AAD1F5EC
:101E50003A2D2D2D25250D0A000000000000B4426A
:101E6000CAFDBEDDD2ECB3A300000000BDE1B9FBAA
:101E70003ACAFDBEDDD2ECB3A30D0A00980121429F
:101E8000CAFDBEDDD5FDB3A300000000BDE1B9FB76
:101E90003ACAFDBEDDD5FDB3A30D0A002D2D2D2DB3
:101EA0002D2D2DB2E2CAD4BDE1CAF82D2D2D2D2D38
:101EB0002D2D0D0A000000002DE9F04F93B00020F9
:101EC00010900F900E900D900C90002580460B9076
:101ED0000A9000240FE0F54850F83410284601F02D
:101EE000C3F90546F24850F83410404601F0BCF9F9
:101EF0008046601C84B2B4F5007FECDB4FF0884173
:101F0000284601F01FFA05464FF08841404601F08F
:101F100019FA8046002413E0E44951F834002946B8
:101F200001F0D4FCE14941F83400E14951F83400B2
:101F3000414601F0CBFCDE4941F83400601C84B21C
:101F4000B4F5007FE8DB01244DE0D84850F83410A8
:101F50004FF0804001F034FB0746601ED34A52F830
:101F60003010384601F080F90646D04A601C52F81D
:101F70003010304601F078F91190119801F048F9CD
:101F800081460022CB4B00F003FD064600F01AFC10
:101F9000C64941F83400C64850F834104FF080402C
:101FA00001F00EFB0746601EC14A52F83010384659
:101FB00001F05AF90646BE4A601C52F8301030460D
:101FC00001F052F91190119801F022F98146002296
:101FD000B84B00F0DDFC064600F0F4FBB44941F8D4
:101FE0003400601C84B2B4F5FF7FAEDD002491E0C4
:101FF000AE4B621C53F832101A4652F8340001F00E
:1020000033F9AA4A0990A01C52F83010099801F03F
:102010002BF98346A54AE01C52F83010584601F0CF
:1020200023F98246A14A201D52F83010504601F093
:102030001BF981469D4A601D52F83010484601F058
:1020400013F90746994AA01D52F83010384601F09E
:102050000BF90646954AE01D52F83010304601F063
:1020600003F91190119801F0D3F881460022924BA8
:1020700000F08EFC064600F0A5FB8C4941F83400C8
:102080008B4B621C53F832101A4652F8340001F0A0
:10209000EBF8874A0990A01C52F83010099801F01B
:1020A000E3F88346824AE01C52F83010584601F0AB
:1020B000DBF882467E4A201D52F83010504601F06F
:1020C000D3F881467A4A601D52F83010484601F034
:1020D000CBF80746764AA01D52F83010384601F07A
:1020E000C3F80646724AE01D52F83010304601F03F
:1020F000BBF81190119801F08BF8814600226E4BCD
:1021000000F046FC064600F05DFB694941F83400EA
:10211000601C84B2B4F5FC7FFFF66AAF002067490B
:1021200008806248FEF742FB6148FEF73FFB00244F
:1021300039E05E4A02EBC40251685C4A02EBC40219
:10214000506801F03DFA0746584A52F8341052F8E8
:10215000340001F035FA8146394601F085F806462B
:1021600000F0C9FA514941F83400514A02EBC40267
:1021700051684F4A02EBC402506801F021FA074649
:102180004B4A52F8341052F8340001F019FA8146E3
:10219000394601F069F8064600F0ADFA434941F8C6
:1021A0003400601C84B2B4F5007FC2DB01240FE070
:1021B0003E4850F834100B9801F056F80B903C480C
:1021C00050F834100A9801F04FF80A90601C84B25D
:1021D000B4F5007FECDB6421344800F057F90D9032
:1021E0006421334800F052F90C900C9800F093FDF4
:1021F0000022334BCDE9060100F0E0FD00224FF054
:102200008143CDE9080100F0C3FB064600222D4BB7
:1022100000F0D4FD814600F0D5FA1090109801F03E
:1022200053F92949086041460B9801F0C9F906465F
:1022300029460A9801F0C4F90746314601F082F8B0
:102240000F900F9800F0E4FF0646204A204B00F064
:10225000B5FDCDE904010F9800F0DAFF06460F4600
:102260000F9800F0D5FF81461A4A1B4B00F0A6FDDF
:1022700032463B46CDE9000100F0A0FDCDE9020168
:10228000DDE9042300F0D0FA144A154BCDE906012C
:1022900000F0CAFACDE9080100F094FA0E900A495C
:1022A0000E98486013B0BDE8F08F00005400002085
:1022B000D410002000001040000020401C0000202E
:1022C0000000594000004E4028000020B4C876BEEF
:1022D0009F5A3E4048E17A14AE8746C0AE47E17A45
:1022E00014B6574010B500201C49088030E029E0A2
:1022F00000F01EF919480088B0F5007F22DA18486E
:10230000008801F015F91749144A128841F8320083
:102310000020124A128801EBC2014860124800886E
:1023200001F006F911490D4A128841F832000020E7
:102330000A4A128801EBC201486008480088401C24
:102340000649088020210A48FEF7EAFB0028CFD082
:1023500002480088B0F5007FC9DB10BD1C000020DA
:10236000160000205400002018000020D410002087
:10237000000C014010B56FF00400FFF72FFA0A4877
:1023800000680A49B0FBF1F0094908700846007876
:1023900000EB4001C1EBC0104FF6FF7101EAC00035
:1023A0000449088010BD00000000002000127A00DF
:1023B00032000020340000200146114A12884A43AE
:1023C0004FF0E0235A6100229A611A46126942F0E6
:1023D00001021A6100BF4FF0E022106900F0010213
:1023E0001AB100F48032002AF5D04FF0E0221269D1
:1023F00022F001024FF0E0231A6100229A61704737
:102400003400002010B5002317A202211846FEF761
:1024100095FB102316A202212020FFF74FF810236E
:1024200014A202214620FFF749F8002312A204213A
:102430001846FEF783FB10230DA204212020FFF78E
:102440003DF810230EA204214620FFF737F80023A1
:102450000CA206211846FEF771FB102304A20621E8
:102460002020FFF72BF810BDD0C4C2CA0000000026
:102470003A000000542F4D00D1AAD1F50000000011
:1024800025000000BDE1B9FB000000002DE9F0418E
:1024900005460E460424274655F8348000BF09E05F
:1024A00055F83410404601F057F802D255F8348000
:1024B0002746641CB442F3DB3846BDE8F0810000D7
:1024C00000BF054A128802F04002002AF9D0C2B2C9
:1024D000014B1B1D1A807047003801404FF4A0606B
:1024E000FEF74CFEFFF746FF4FF4165000F01AF9C6
:1024F000FEF768FDFEF7CAF8FFF7DEF8FEF7A2FE6A
:10250000FEF746FEFEF7D8FDFEF742FEFEF748FD59
:102510000AE0FFF777FF05480078012801D1FFF7AF
:10252000DDFB0A20FFF748FFF3E700003000002042
:102530001CB500202F4908802F4908800021AE20BB
:10254000FEF72CFC0121AE20FEF728FC07208DF8B9
:10255000000006236A460721AE20FEF7DDFB9DF84A
:1025600000404FF6FF7000EA84342248008820447F
:10257000204908809DF801404FF6FF7000EA84145E
:1025800008460088204408809DF80240A4100846B0
:102590000088204408809DF803404FF6FF7000EA51
:1025A0008434154800882044134908809DF804406D
:1025B0004FF6FF7000EA8414084600882044088023
:1025C0009DF80540A410084600882044088008466D
:1025D000008842F21071884202DC0020064908801F
:1025E0000448008842F21071884202DC0020014950
:1025F00008801CBD16000020180000202DE9FC41B9
:1026000004460D46CDE90045019800F0004080B138
:102610002046294600F050FB804600F071FF074637
:102620004FF07E5101F052F9064600F0F1FDBDE891
:10263000FC812046294600F03FFB074600F060FF82
:10264000064600F0E5FDF2E72DE9FC5F06460F4681
:1026500014461D46002213462046294600F0F0FA93
:1026600003D100200146BDE8FC9F22462B463046A0
:10267000394600F08DF98246FFF7C0FFCDE9000131
:1026800022462B46DDE9000100F098FB82463246E7
:102690003B4600F0C7FC8046894600221346304680
:1026A000394600F04FFB02D24FF0010A01E04FF033
:1026B000000A002213462046294600F043FB01D2BF
:1026C000012000E00020824507D022462B464046EC
:1026D000494600F0B3FC8046894640464946C2E779
:1026E00010B50246012000E050430B1EA1F1010489
:1026F000E1B2F9D110BD70B5054601F05FF80446AE
:1027000020F00040C0F1FF40C00F08D025F000408D
:10271000C0F1FF40C00F04BF0120FDF79CFE204622
:1027200070BD000010B586B00446012144F20400DB
:10273000FEF748FF4FF40070ADF8140003208DF849
:10274000160018208DF8170005A91C48FEF714F98B
:102750004FF48060ADF8140004208DF8170005A92F
:102760001648FEF709F925208DF8000003208DF8A2
:1027700001008DF8020001208DF803006846FEF785
:10278000C5FC01940020ADF80800ADF80A00ADF8D2
:102790000C00ADF810000C20ADF80E0001A908489F
:1027A000FFF702F9012240F225510548FFF7D6F85C
:1027B00001210348FFF79CF806B010BD0008014056
:1027C0000038014021F00042A2F16052B2F5801FB2
:1027D00001F0004328BFD2F17F6C0BD95FEA001CE7
:1027E00043EAC20242EB507018BF704728BF20F086
:1027F00001007047B2F5801FBCBF184670474FEA12
:10280000410C1CF5001F02D2084600F0A0BF70B5B5
:1028100000F07EFB00000089FFF7F6BF4FF000409C
:10282000A0F580007047000010B591EA030F48BF83
:1028300083F0004300F10A84841A71EB030C05D283
:10284000121943EB0C03001B61EB0C01DFF824E1D0
:102850004FEA1154A4EB135C1EEA430F18BF9EEA23
:10286000445F73D023EA0E03DCF1200E21EA045109
:1028700043F4801332D322FA0CFE10EB0E0023FA3D
:102880000CFE41EB0E01CCF1200E03FA0EFE10EB14
:102890000E0051F10001B1F5801FCCF1200E32D2B3
:1028A00001EB045112FA0EF2BDE8104058BF704718
:1028B000401C38BF5FEA420218BF7047002814BFAF
:1028C00020F0010041F100014FEA410313F5001F20
:1028D00038BF7047A1F1C04100F068BB012A43EB4B
:1028E0000302ACF1200CDCF11F0E32BF4FF0000EE2
:1028F00023FA0CF310EB030041EB0451B4EB115F2E
:10290000D0D0A1EB045101F5801149085FEA3000F5
:1029100001EB04510ED350F1000038BF12FA0EFE45
:1029200008D1BDE81040C9E7401C38BF5FEA420249
:10293000CAD1C3E7BDE810404FEA410313F5001FB9
:1029400038BF7047A1F1C04100F030BB9EEA445F40
:1029500008D011EA5E0FBDE8104004BF01F000414D
:1029600000207047BDE8104070B500F0D1FA00BFFC
:1029700064FBBE3E0000E0FF491058BFC1F140417A
:102980005B1058BFC3F140438B42EFF300807047A8
:102990002DE9C04130B4DFF8A0C23CEA111418BFE1
:1029A0003CEA131400F0EC8081EA03051CEA1114E0
:1029B00044EAD57418BF1CEA131500F0C780A4EBD5
:1029C00005044FF0004545EAC12145EAC32341EA29
:1029D000505143EA525304F17F74994204F5003494
:1029E0004FEAC0204FEAC22208BF904200F09C800C
:1029F0004FEA13650FF24016765D4FEA134506FB6A
:102A000005F7C7F1807706FB07F74FEAD737A7FB33
:102A100003687642C8F58038A7FB06CE38BFA8F118
:102A2000010807FB08E64FF0000EA6FB028CE6FB50
:102A300003CEDCF1000CCEF1004E38BFAEF1010E3A
:102A4000A6FB0C584FF000074FF00005E6FB0E8781
:102A5000A1FB08C6A0FB07CE16EB0E0645F100054C
:102A6000E1FB076515F1E04E7EBFA4F580345FEA17
:102A700046066D4116F1800745F100054FEA17271C
:102A80004FEA066647EA0567A6F1DE46B6F1805FC3
:102A90004FEA15251FD9384624F0010C05EBC47107
:102AA000BCF1FE6F01EB0C1102D8F0BCBDE8008157
:102AB00024425CBF01F5801E9EEAC47F02D4F0BCB4
:102AC000BDE80081244238D4F0BCA1F1C041BDE88A
:102AD000004100F06BBA4FEAD22242EA43524FEA79
:102AE000D323A7FB02864FEAD02040EA415007FBE0
:102AF00003661EEA0E0F4FEAD12105FB026658BF9E
:102B0000A6EB0056B6EB00564FEA520E4EEAC37ED5
:102B100018EB0E0E56EB530EBDD518EB02085E41B6
:102B20007F1C55F10005B6E74FF480154FF0000704
:102B30004FF000064FF00008ADE7F0BC4FF000008A
:102B400001F1C04101F00041BDE8008111EA0C1F14
:102B50000CEA131500D00CE013EA0C1F00F02580DE
:102B60004FF00000F0BC81EA030101F00041BDE834
:102B70000081F0BCBDE8004181EA030100F016BA13
:102B8000F0BCBDE8004170B500F0C2F9097EFC3E22
:102B900000F007B881EA03014FF0000001F00041A6
:102BA000704781EA030100F001BAF0BCBDE80041C2
:102BB0004FF0000021497047FFFDFBF9F7F5F4F2F3
:102BC000F0EEEDEBE9E8E6E4E3E1E0DEDDDBDAD8C8
:102BD000D7D5D4D3D1D0CFCDCCCBCAC8C7C6C5C426
:102BE000C2C1C0BFBEBDBCBBBAB9B8B7B6B5B4B33D
:102BF000B2B1B0AFAEADACABAAA9A8A8A7A6A5A428
:102C0000A3A3A2A1A09F9F9E9D9C9C9B9A999998EB
:102C10009797969595949393929191908F8F8E8E8E
:102C20008D8C8C8B8B8A898988888787868585841B
:102C300084838382828181800000FF070000F87F07
:102C400051EA030C17D41CF5801F58BFBCF5801F38
:102C500000F10680994218BF704708BF9042704744
:102C600007D711F5801F58BF13F5801F19D499425B
:102C70007047894270471CF5801F08D5BCF5801F3E
:102C8000F7D58B4218BF704708BF824270474FF498
:102C9000001C1CEB410F38BF1CEB430F01D28B42D1
:102CA000704770B500F034F9922449004FF000519C
:102CB0004FF08053FFF760BE4FEA41034FEA535392
:102CC000A3F58063D3F11E03C8BFD3F1210C0CDD43
:102CD0004FF0004242EAC12242EA505232FA03FC6B
:102CE0008CEAE17CACEBE1707047102BC4BF002094
:102CF000704703F5787CBCF1FF3F04D06FF00042D1
:102D000082EA2100704770B500F002F949922480F0
:102D100000207047F2E710F0004248BF4042B0FA8E
:102D200080F310FA03F10AD0C3F11D0303F58063A9
:102D30004FEA415002EB035202EBD12170474FF0B2
:102D40000000704751EA030C17D41CF5801F58BFD0
:102D5000BCF5801F00F10680994218BF704708BF7C
:102D60009042704707D711F5801F58BF13F5801F99
:102D700019D499427047894270471CF5801F08D5C5
:102D8000BCF5801FF7D58B4218BF704708BF824241
:102D900070474FF4001C1CEB410F38BF1CEB430F76
:102DA00001D28B42704770B500F0B2F8922449000E
:102DB0004FF000514FF08053FFF7DEBDDFF848C100
:102DC00070B51CEA111E1EBF1CEA13159EEA0C0FFB
:102DD00095EA0C0F00F06F8081EA030423EA4C139C
:102DE0004EEAD47E21EA4C1141F4801143F4801361
:102DF000AE44A1FB024CA0FB0365AEF17F7E361909
:102E000055EB0C05A1FB034C4CF10003A0FB021C8D
:102E100016EB0C06654153F10003094218BF46F05A
:102E2000010613F4007F0BD14FEA03314FEA05305E
:102E3000340341EA155140EA16506FF003020AE0EC
:102E40004FEAC3214FEAC520F40241EA555140EA56
:102E500056506FF0020202EB2E4201EB025585EA5A
:102E6000CE710AD05FEA440C18BF24F0004450F140
:102E7000000041F1000120EAD47040F2FE7C62457E
:102E800000D270BDA84214BF4FF080444FF04044C0
:102E9000002E08BF0024BEF1806FA8BFA1F1C04181
:102EA000BDE8704080F282804FF0000001F1C04127
:102EB00001F0004170479EEA0C0F0CEA131518BF91
:102EC00095EA0C0F06D04FF0000081EA030E0EF0D9
:102ED000004170BD00F01CF88900013E00F007B809
:102EE00000F009B84FEA430C5FEA5C5C08D081EA65
:102EF000030100F05BB84FEA410C5FEA5C5CF6D17D
:102F00004FF00000014970470000FF070000F87F04
:102F10000EF1020E2EF0030E5EF8046B364205D45D
:102F2000012A43EB030515F5001F12D8012841EBD8
:102F3000010C1CF5001F0CD80ED14FEAD17C15F501
:102F4000001F0CEB4C0C0CF1020C08BF4CEBD37CBB
:102F500004E04FF0080C01E04FEAD37C0CEB4C0589
:102F600026FA05F606F00706B6F1040C06D20EEBBB
:102F7000860CBDE870404CF0010C6047DFE80CF0B7
:102F8000090B02024FF000414FF00000A1F50021B3
:102F900070BD19461046012851EB010418BFD4F545
:102FA000001484BF002001F0004170BD0808A0F5A6
:102FB00000114FEA3101704753EA010C17D41CF598
:102FC000801F58BFBCF5801F00F106808B4218BFE0
:102FD000704708BF8242704707D713F5801F58BF5C
:102FE00011F5801F19D48B4270479B4270471CF526
:102FF000801F08D5BCF5801FF7D5994218BF7047D0
:1030000008BF904270474FF4001C1CEB430F38BFC1
:103010001CEB410F01D2994270470FB40CBC03BCAA
:10302000FFF7C1BE91EA030F10B581F000413FF5F3
:1030300003AC83F0004300F009B8000010B591EA3A
:10304000030F48BF83F000433FF5F6AB841A71EBE2
:10305000030C07D212198CF0004C43EB0C03001B3D
:1030600061EB0C01DFF8A4E14FEA1154A4EB135C0F
:103070001EEA430F18BF9EEA445F00F0B08023EAC7
:103080006E03524221EA0451C3EB6E0338BF5B1E4C
:10309000DCF1200E25D322FA0CFE10EB0E0043FAD1
:1030A0000CFE41EB0E01CCF1200E03FA0EFE10EBEC
:1030B0000E0051F10001CCF1200E29D412FA0EF2CB
:1030C00001EB0451BDE8104058BF7047401C1CBFC5
:1030D000B2F1004F704700280CBF491C20F00100DE
:1030E000704712EB020E43EB030218BF4FF0010EC4
:1030F0004EEA4202ACF1200CDCF11E0E54D943FA28
:103100000CFE10EB0E0051F1FF31CCF11E0ED5D5A7
:103110000EF1010E12FA0EFE404141EB010101EBEE
:10312000445C5FEA5C5C10D910EBDE7001EB04518B
:1031300038BFBEF1004FBDE8104018BF70470028EF
:103140000CBF491C20F00100704730D24FEAD42C4C
:1031500011F5001124F400641BD0B1FA81F20B3A8E
:10316000A41AA41ED2F12003914030FA03F31943AC
:10317000904001EBCC71002C01EB0451BDE81040F4
:10318000A8BF704701F1C0414FF0000001F00041BD
:103190007047B0FA80F310FA03F100D110BDE41AC1
:1031A000173C4805C90AE4E701EB045110BD49107A
:1031B00001EB0451BDE810404FEA300002E04FF04F
:1031C000000170474A0008BF0042F8D0B2F5001F66
:1031D00028BF704701F000414FF0000070479EEAA1
:1031E000445F07D011EA5E0FBDE8104004BF002124
:1031F00000207047BDE8104070B5FFF789FE00BFA2
:1032000040DFF63E83F00041104670470000E0FFCB
:1032100043004FEAD30C4FEA3C0C43401FBF40072A
:103220000CF1605113F0FE4F70471CF0006F03D19A
:1032300000200CF0004170470CF0004343EA50704E
:1032400010B540EACC0000F03CFA00BF000000924C
:103250004FEA0001FFF7AABE4FF000414FF0000017
:10326000A1F500217047000090EA010F48BF81F0EE
:10327000004100F13283421A3CBF801A89184FEA9C
:10328000D0524FF07F4C1CEA410FA2EBD15318BF34
:103290009CEA026F00F03B804FF0004C4CEA0020AB
:1032A0004CEA012121FA03FC10EB0C0C1ED202F1B6
:1032B000FF325FEA1C2040EBC25038BF70471CF061
:1032C0007F0F4FEA400C18BFBCF17F4F38BF7047EB
:1032D000C3F12003994008BF20F00100BCF17F4FEB
:1032E00038BF7047A0F1C04000F031BA4FEA3C004F
:1032F000000A40EBC25028BF1CF0FF0F4FEA400C01
:10330000E6D018BFBCF17F4F38BF7047EAE79CEAB0
:10331000026F05D010EA5C0F08BF00F00040704754
:1033200010B500F0CEF900BF64FBBE3E401058BFA0
:10333000C0F14040491058BFC1F140418142EFF314
:10334000008070474FF47F0C1CEAD0121EBF1CEAAD
:10335000D11392EA0C0F93EA0C0F00F0858090EAEB
:10336000010F48BF42F4807240F4000C41F40000A9
:103370002CF07F4120F07F4000B58142A2EB030298
:103380000FF2081CACEB504EC0F100009EF800E0BC
:103390004FEA4E0E00FB0EFC38BF49004FEA2C1CD2
:1033A00002F5FA020CFB0EF34FEACE1E4FEA112C87
:1033B0004FEAC1210EEB635E42EB22420EFB0CFC96
:1033C0004FEA1C5300FB03114FEA112C4FEA013165
:1033D0000EFB0CFC4FEADC4C00FB0C11C14228BF79
:1033E00009184CEB03335DF804EB10EB410143EBA0
:1033F000C250B2F57C0F38BF704729D512F0F00FDC
:103400001CBF00F1C04000F0004070470081828383
:103410008485868788898B8C8D8E8F9192939596E3
:1034200097999A9C9D9FA0A2A3A5A7A8AAACAEB06D
:10343000B2B3B5B7B9BCBEC0C2C5C7C9CCCED1D472
:10344000D7D9DCDFE2E6E9ECF0F3F7FAFE000000A2
:103450004FEA400C0CF1807CBCF17E4F28BF7047D6
:10346000B0F1C04000F073B990EA010F0CEAD1133B
:1034700048BF42F48072624538BF634507D213F4F7
:103480007F0F16D080EA010000F00040704710B5B1
:1034900000F017F9097EFC3E00F005B880EA010053
:1034A00000F00040704780EA010000F0004000F0AA
:1034B0004EB912F47F0F04BF0248704780EA010042
:1034C00000F045B90000C07F41000B0ED3F19E0211
:1034D00008D950F400034FEA032323FA02F048BF4F
:1034E0004042704710B500F0ECF800BF49922480CC
:1034F000002070476FF0004282EA20007047000011
:1035000010F0004148BF4042B0FA80F310FA03F2D5
:10351000C3F19D030BD051EAC35101EB12205306B6
:1035200038BF704700F1010008BF20F0010070476C
:10353000B0FA80F310FA03F2C3F19D030AD0D90563
:1035400001EB1220530638BF704700F1010008BF9D
:1035500020F001007047000050EA010C00F11380D8
:103560001CF5000F58BFBCF5000F01D4884270470E
:1035700007D710F5000F58BF11F5000F15D488427A
:103580007047894270471CF5000F04D5BCF5000F49
:10359000F7D5814270474FF0807C1CEB400F38BF5D
:1035A0001CEB410F01D28142704710B500F089F841
:1035B000922449004FF000504FF08051FFF7B6BE03
:1035C0004FF47F0C1CEAD0121EBF1CEAD11392EA02
:1035D0000C0F93EA0C0F00F0478090EA010F48BFF0
:1035E00042F480724FF0004C4CEA00204CEA01217A
:1035F00002EB0302A0FB0113A2F50002002918BF91
:1036000043F001035B0028BF4FEA330342EB224241
:103610005FEA132C4CEBC2502EBFBCEB436FB2F5EC
:103620007C0F70474FEA036CBCF1004F08BF20F0DD
:103630000100B2F57C0F38BF70470BD582F0FF0256
:1036400012F5803FC8BF704700F1C040D8BF00F0FE
:103650000040704700F5000C5FEA4C0C48BF704713
:10366000B0F1C04000F073B890EA010F0CEAD1133A
:1036700048BF42F48072624538BF634504D280EA95
:10368000010000F00040704710B500F01AF800BFCC
:103690008900013E00F007B800F009B85FEA410C6C
:1036A0005FEA1C6C08D080EA010000F050B85FEAC5
:1036B000400C5FEA1C6CF6D14FF00040A0F5800092
:1036C00070470EF1020E2EF0030E5EF8044B2442FA
:1036D00004D44FEA4102B2F17F4F11D84FEA4003C0
:1036E000B3F17F4F0CD80ED14FEAD07CB2F17F4FAF
:1036F0000CEB4C0C0CF1020C08BF4CEBD17C04E041
:103700004FF0080C01E04FEAD17C0CEB4C0324FA9B
:1037100003F404F00704B4F1040C06D20EEB840C9D
:10372000BDE810404CF0010C6047DFE80CF00708E2
:1037300002024FF00040A0F5800010BD0846420094
:1037400018BFD2F1807288BF00F0004010BDFF2189
:1037500041EAD050C005704751EA000C00F11380D7
:103760001CF5000F58BFBCF5000F01D48142704713
:1037700007D711F5000F58BF10F5000F15D481427F
:103780007047894270471CF5000F04D5BCF5000F47
:10379000F7D5884270474FF0807C1CEB410F38BF53
:1037A0001CEB400F01D28842704780EA010081EA99
:1037B000000180EA0100FFF7F8BE00004FEAD05197
:1037C000002988BFD1F1FF0240F2758001F17D012F
:1037D0004FEA002070B5490840F0004038BF40086B
:1037E0000EA2430E040CD25C02FB02F304FB03F3B3
:1037F000C3F14043A3FB0254ED0D45EA442202FB12
:1038000002F3A0FB03546D42C4F1404438BF641E70
:10381000A2FB05350023E2FB0453EA0B42EA4342D4
:10382000A0FB023212F14004A2F12103E40903F0EB
:103830007F031F2B32D904EBC15070BDFEFAF7F3A2
:10384000F0ECE9E6E4E1DEDCD9D7D4D2D0CECCCAC4
:10385000C8C6C4C2C1BFBDBCBAB9B7B6B4B3B2B0B2
:10386000AFAEACABAAA9A8A7A6A4A3A2A1A09F9EF5
:103870009E9D9C9B9A9998979796959493939291D5
:1038800090908F8E8E8D8C8C8B8A8A898988878781
:1038900086868584848383828281818004FB04F60A
:1038A000B6EB004603D5E64248BF641CC3E7A64218
:1038B00058BF641CBFE711F0FF0F02D100F00040B9
:1038C000704710B5FFF7FDFE7FDBFFBE90EA010FEA
:1038D00048BF81F000413FF5CEAC421A04D882F0D7
:1038E0000042A0EB020011444FEAD0524FF07F4C4F
:1038F0001CEA410FA2EBD15318BF9CEA026F4AD0D9
:103900004FF0004C4CEA00204CEA012121FA03FC64
:10391000B0EB0C0C0FD412F0FE0F36D05FEA4C0067
:103920001DD5001240EBC25038BF70471CF03F0F4E
:1039300018BF70470BE0A2F101025FEA1C2040EBC8
:10394000C25038BF70471CF07F0F18BF7047C3F1DB
:103950002003994014BF401E20F0010070478008EA
:103960004FEA122308BF7047B0FA80FCA2EB0C02AA
:10397000CCF1280C60FA0CF093EA122F04BF00EB94
:10398000C25070474FEAC3707047130A5FEADC10F9
:1039900008BF7047F6E79CEA026F04D010EA5C0F9C
:1039A00008BF0020704710B5FFF78BFE40DFF63EE2
:1039B00081F0004070470000000000000000002F70
:1039C000000000000700070000147F147F1400248B
:1039D0002A7F2A12006264081323003649552250B8
:1039E00000000503000000001C22410000004122ED
:1039F0001C000014083E08140008083E08080000D7
:103A000000A06000000808080808000060600000CE
:103A1000002010080402003E5149453E0000427F4C
:103A20004000004261514946002141454B31001898
:103A300014127F10002745454539003C4A4949305A
:103A40000001710905030036494949360006494914
:103A5000291E00003636000000005636000000081F
:103A600014224100001414141414000041221408FC
:103A700000020151090600324959513E007C1211E1
:103A8000127C007F49494936003E41414122007F76
:103A90004141221C007F49494941007F0909090130
:103AA000003E4149497A007F0808087F0000417FB5
:103AB0004100002040413F01007F08142241007F67
:103AC00040404040007F020C027F007F0408107FCE
:103AD000003E4141413E007F09090906003E415137
:103AE000215E007F091929460046494949310001F4
:103AF000017F0101003F4040403F001F2040201F48
:103B0000003F4038403F006314081463000708700A
:103B1000080700615149454300007F4141000055BD
:103B20002A552A55000041417F0000040201020489
:103B30000040404040400000010204000020545476
:103B40005478007F484444380038444444200038C6
:103B50004444487F00385454541800087E09010238
:103B60000018A4A4A47C007F080404780000447D0D
:103B70004000004080847D00007F10284400000049
:103B8000417F4000007C04180478007C080404781D
:103B900000384444443800FC242424180018242409
:103BA00018FC007C08040408004854545420000405
:103BB0003F444020003C4040207C001C2040201C12
:103BC000003C4030403C004428102844001CA0A089
:103BD000A07C004464544C441414141414140000C5
:103BE00000000000000000000000000000000000D5
:103BF00000F800000000000000333000000000105A
:103C00000C06100C0600000000000000000040C080
:103C10007840C0784000043F04043F040400007072
:103C200088FC08300000001820FF211E0000F0086A
:103C3000F000E018000000211C031E211E0000F00F
:103C40000888700000001E21232419272110101657
:103C50000E00000000000000000000000000000056
:103C600000E01804020000000007182040000002D5
:103C70000418E00000000040201807000000404049
:103C800080F0804040000202010F010202000000AB
:103C900000F0000000000101011F0101010000000F
:103CA00000000000000080B0700000000000000074
:103CB00000000000000000010101010101010000FD
:103CC0000000000000000030300000000000000094
:103CD000000080601804006018060100000000E089
:103CE00010080810E000000F102020100F00001036
:103CF00010F8000000000020203F2020000000708D
:103D00000808088870000030282422213000003084
:103D10000888884830000018202020110E0000007C
:103D2000C02010F8000000070424243F240000F8FD
:103D30000888880808000019212020110E0000E0E2
:103D4000108888180000000F112020110E00003884
:103D50000808C83808000000003F0000000000709C
:103D6000880808887000001C222121221C0000E025
:103D700010080810E0000000312222110F0000009E
:103D800000C0C00000000000003030000000000053
:103D900000800000000000008060000000000000C3
:103DA000804020100800000102040810200040405C
:103DB000404040404000040404040404040000089F
:103DC0001020408000000020100804020100007054
:103DD00048080808F0000000003036010000C0303C
:103DE000C828E810E0000718272423140B0000005F
:103DF000C038E0000000203C23020227382008F8E9
:103E0000888888700000203F202020110E00C030DC
:103E1000080808083800071820202010080008F8B3
:103E200008080810E000203F202020100F0008F8AC
:103E30008888E8081000203F20202320180008F878
:103E40008888E8081000203F200003000000C030F0
:103E500008080838000007182020221E020008F871
:103E600008000008F808203F210101213F20000838
:103E700008F8080800000020203F20200000000073
:103E80000808F8080800C08080807F00000008F85B
:103E900088C028180800203F20012638200008F894
:103EA000080000000000203F20202020300008F8FB
:103EB000F800F8F80800203F003F003F200008F815
:103EC00030C00008F808203F200007183F00E0102D
:103ED00008080810E0000F10202020100F0008F83C
:103EE00008080808F000203F210101010000E0104F
:103EF00008080810E0000F18242438504F0008F874
:103F0000888888887000203F2000030C30200070D3
:103F10008808080838000038202121221C001808D1
:103F200008F8080818000000203F2000000008F8EA
:103F300008000008F808001F202020201F00087833
:103F4000880000C83808000007380E010000F80893
:103F500000F80008F800033C0700073C03000818BD
:103F600068808068180820302C03032C3020083823
:103F7000C800C83808000000203F200000001008DA
:103F80000808C83808002038262120201800000022
:103F900000FE020202000000007F40404000000CD2
:103FA00030C000000000000000010638C000000220
:103FB0000202FE000000004040407F0000000000C0
:103FC00004020202040000000000000000000000E3
:103FD00000000000000080808080808080800002DF
:103FE00002040000000000000000000000000000CB
:103FF0008080808000000019242222223F2008F8BF
:10400000008080000000003F112020110E00000001
:10401000008080800000000E112020201100000090
:1040200000808088F800000E112020103F20000042
:10403000808080800000001F222222221300008046
:1040400080F0888888180020203F20200000000091
:10405000808080808000006B94949493600008F8C6
:10406000008080800000203F210000203F20008051
:104070009898000000000020203F20200000000051
:1040800000809898000000C08080807F000008F8C1
:10409000000080808000203F24022D302000000896
:1040A00008F8000000000020203F20200000808051
:1040B000808080808000203F20003F20003F808063
:1040C000008080800000203F210000203F20000071
:1040D000808080800000001F202020201F00808022
:1040E00000808000000080FFA12020110E00000051
:1040F000008080808000000E112020A0FF80808042
:1041000080008080800020203F21200001000000EE
:1041100080808080800000332424242419000080C3
:1041200080E0808000000000001F202000008080D0
:10413000000000808000001F202020103F20808091
:1041400080000080808000010E3008060100808021
:104150000080008080800F300C030C300F00008046
:104160008000808080000020312E0E312000808071
:1041700080000080808080818E70180601000080A1
:104180008080808080000021302C222130000000BF
:104190000000807C020200000000003F4040000060
:1041A0000000FF00000000000000FF00000000020F
:1041B000027C800000000040403F0000000000063C
:1041C00001010202040400000000000000000008D9
:1041D0001020408000000020100804020100FC04B0
:1041E0000404040404043F20202020202020040490
:1041F0000404040404FC202020202020203F040488
:104200000404040404042020202020202020FFFF98
:10421000FFFFFFFFFFFFFFFFFFFFFFFFFFFF00FEAE
:10422000020202020202007F40404040404002027F
:1042300002020202FE004040404040407F00000079
:10424000C030080804840000030C101020218404EE
:10425000080830C00000212010100C0300000000EE
:10426000C030080804040000030C101020200404CF
:10427000080830C00000202010100C030000A1E648
:10428000060909E6F80C040202020202041E0000FC
:10429000000000071F302040404040402010000038
:1042A000B6E00000101098A44744A4540C04000089
:1042B00000000081898944444A3121110905030025
:1042C0000000B9A6080808F80808081010FF101028
:1042D00010F000001030101F088848300E01408098
:1042E000403F0000C4DC08CC4A49484ACC18007F53
:1042F00088888482E00000FF121252927F00007EC4
:1043000088888482E000BDA18060F80708C8381062
:104310005454FF54547C10000000FF8049312F4852
:1043200049497F4949494800BFB50000FC445454FD
:104330005455FE545454F444440040300F40231567
:1043400049817F05091129444000BCE000007E003E
:1043500000FF0040300F04146404000040407E421F
:10436000427E4242427E42427E404000B2E21060C3
:10437000028C00FE02F202FE00F800FF00000404BE
:104380007E018047300F10270047807F0000D2C792
:10439000008060F807001CE0010600E01E0000003D
:1043A000010000FF00804020130C1320408080009B
:1043B000CCE5008060F807101010D0FFD01010106E
:1043C0000000010000FF1008040B08FF080B0408A0
:1043D0001000CEC21060028C0000FE929292929267
:1043E000FE00000004047E01407E42427E427E4286
:1043F000427E4000D0C40000800000E002041800AB
:10440000000040800000100C0300003F404040408E
:10441000407800010E00C2CA0014A4442434AD66E2
:1044200024940444A414000008090808090909FD9B
:1044300009090B0808090800D1AA0000F80808F8C3
:104440000C0B08F80808F800000040407F40407F4F
:104450004040407F40407F404000D1F50824236A1F
:10446000AA2AAA6A2A2A2AEA0202000010111515AD
:1044700015FF15151511100F3040F800D4AD0000D0
:10448000FE0202F2929A969292F20202020080607A
:104490001F40201744847C04041720400000D2F2FF
:1044A00000FE0242424242FA4242424202FE000002
:1044B00000FF4050484443404142445840FF000000
:1044C000B9FD404042CC00084888080808FF0808A9
:1044D00008000040201F204040414048504F4040CD
:1044E0004000B8DF04040404F49495969494F40412
:1044F0000404040000FE02027A4A4A4A4A4A7A0246
:1045000082FE0000BDE12030AC6320180848484816
:104510007F484848080022672212121200FE4242D9
:10452000424242FE0000B9FB000000FE929292FE61
:10453000929292FE0000000044442425140C04FFD3
:10454000040C142524444400D5FD000202C20202DA
:1045500002FE82828282820200004040407F404010
:10456000407F4040404040404000B3A3201808EA4C
:10457000ACA8A8AFA8A8ACEA0828180000003E0222
:10458000020202FF020212221E000000CAFD905227
:104590003410FF10345280708F0808F80800829A97
:1045A000566322528E008040330C33408000BEDDC3
:1045B0001010FF109000FE929292F292929E800054
:1045C00042827F0180601F00FC44474444FC00009D
:1045D000D2EC00007E92929292929292929E80E011
:1045E0000000088848281E0808080808FE0808086F
:1045F0000800006000000000000000000000000053
:104600006F0EA6389415903F6058F72D1215A03FF5
:10461000AB047532561EA83F7993E01B0A13B03FD6
:10462000498E3932E515B43FF017FC7F7B17B83F50
:10463000DA97623D8C17BC3FE05BA15DEB0AC03F9F
:10464000E9AA91330D09C23F7553A8670B06C43F11
:104650006C2377D3C501C63F797A03651CFCC73F3D
:10466000A3DDCC20EFF4C93F6A1FD2231EECCB3F61
:10467000CCFB94A589E1CD3F96071CFA11D5CF3F1D
:104680004769F9C94BE3D03F0E0E1483FDDAD13FE1
:104690001FFD24838ED1D23F4FE92F37EFC6D33F82
:1046A000FB02711F10BBD43FDD9657D0E1ADD53F63
:1046B0004B667FF3549FD63F19A9A8485A8FD73F1E
:1046C00063A9AEA6E27DD83FC2E97CFCDE6AD93F91
:1046D00063C602524056DA3F9D8125C9F73FDB3F52
:1046E000C3ACB09EF627DC3F01DE442B2E0EDD3F2F
:1046F0001FA444E48FF2DD3F52A9BF5C0DD5DE3F1D
:1047000024F65B4698B5DF3FE4A21E39114AE03F2C
:104710009C2EF5E84EB8E03F512B183C7E25E13F3A
:104720005CE9014D9891E13FEA00B04796FCE13F1A
:1047300057BB116A7166E23F5E5A750423CFE23FB0
:104740004136F479A436E33F0BACDD40EF9CE33F08
:104750002AD520E3FC01E43FBC01B5FEC665E43F79
:10476000EFEE004647C8E43FECB240807729E53FD2
:10477000F057EA895189E53F14201155CFE7E53F0D
:10478000A66BC7E9EA44E63FCD3B7F669EA0E63FC5
:10479000664B6900E4FAE63F16B8D203B653E73F2A
:1047A000A53581D40EABE73FDCC50DEEE800E83F50
:1047B00014EF3DE43E55E83FEA6B5B630BA8E83F2E
:1047C000844E8A3049F9E83FF2911D2AF348E93FC7
:1047D0005714EA470497E93FA8F4979B77E3E93F2A
:1047E000C94EF250482EEA3F095135AE7177EA3F83
:1047F00017A65A14EFBEEA3F862E64FFBB04EB3FB8
:104800004005A506D448EB3F3CCA08DD328BEB3FA0
:10481000F72E5951D4CBEB3F5AC0814EB40AEC3F2E
:10482000A7E9D1DBCE47EC3F6C2C3D1D2083EC3F4C
:1048300045899953A4BCEC3F8C15DCDC57F4EC3F64
:1048400031BA5334372AED3FED17E2F23E5EED3FC9
:10485000468D32CF6B90ED3FE55AEF9DBAC0ED3FEC
:10486000E3E2F45128EFED3FD8FF82FCB11BEE3FAD
:104870007E706CCD5446EE3FFF5444130E6FEE3FF6
:10488000F5BA893BDB95EE3F7235D1D2B9BAEE3F2E
:10489000667EEC84A7DDEE3FE01E101DA2FEEE3F1B
:1048A000CF1BF785A71DEF3FF8A404CAB53AEF3F29
:1048B00014C46313CB55EF3FFF0925ACE56EEF3F02
:1048C00021385AFE0386EF3F5CE42F94249BEF3F90
:1048D000D015051846AEEF3F03D9805467BFEF3FB0
:1048E00003CAA53487CEEF3F5C93E3C3A4DBEF3F5D
:1048F000AF60262EBFE6EF3FFE43E4BFD5EFEF3FAC
:10490000D38C28E6E7F6EF3F86109D2EF5FBEF3FB0
:1049100012639147FDFEEF3F000000000000F03FF2
:104920004049000800000020540000006C0100080D
:1049300094490008540000202C2800008801000839
:1049400000A24A040000000000000000010203046D
:104950000607080900000000000000000000000039
:104960000000000000000000000000000000000047
:104970000000000000000000000000000000000037
:1049800000000102030401020304060708090204EF
:044990000608000015
:04000005080001D519
:00000001FF
